{
  "_format": "hh-sol-artifact-1",
  "contractName": "Masterfile",
  "sourceName": "contracts/Masterfile.sol",
  "abi": [
    {
      "inputs": [
        {
          "internalType": "address[]",
          "name": "currators",
          "type": "address[]"
        },
        {
          "internalType": "contract MockPolicyManager",
          "name": "policyManager_",
          "type": "address"
        }
      ],
      "stateMutability": "nonpayable",
      "type": "constructor"
    },
    {
      "anonymous": false,
      "inputs": [
        {
          "indexed": true,
          "internalType": "address",
          "name": "account",
          "type": "address"
        },
        {
          "indexed": true,
          "internalType": "address",
          "name": "operator",
          "type": "address"
        },
        {
          "indexed": false,
          "internalType": "bool",
          "name": "approved",
          "type": "bool"
        }
      ],
      "name": "ApprovalForAll",
      "type": "event"
    },
    {
      "anonymous": false,
      "inputs": [
        {
          "indexed": false,
          "internalType": "uint256",
          "name": "tokenId",
          "type": "uint256"
        },
        {
          "indexed": false,
          "internalType": "address",
          "name": "buyer",
          "type": "address"
        }
      ],
      "name": "RequestBuy",
      "type": "event"
    },
    {
      "anonymous": false,
      "inputs": [
        {
          "indexed": false,
          "internalType": "uint256",
          "name": "tokenId",
          "type": "uint256"
        },
        {
          "indexed": false,
          "internalType": "bool",
          "name": "forSale",
          "type": "bool"
        },
        {
          "indexed": false,
          "internalType": "uint256",
          "name": "salePrice",
          "type": "uint256"
        }
      ],
      "name": "TokenStatusChanged",
      "type": "event"
    },
    {
      "anonymous": false,
      "inputs": [
        {
          "indexed": true,
          "internalType": "address",
          "name": "operator",
          "type": "address"
        },
        {
          "indexed": true,
          "internalType": "address",
          "name": "from",
          "type": "address"
        },
        {
          "indexed": true,
          "internalType": "address",
          "name": "to",
          "type": "address"
        },
        {
          "indexed": false,
          "internalType": "uint256[]",
          "name": "ids",
          "type": "uint256[]"
        },
        {
          "indexed": false,
          "internalType": "uint256[]",
          "name": "values",
          "type": "uint256[]"
        }
      ],
      "name": "TransferBatch",
      "type": "event"
    },
    {
      "anonymous": false,
      "inputs": [
        {
          "indexed": true,
          "internalType": "address",
          "name": "operator",
          "type": "address"
        },
        {
          "indexed": true,
          "internalType": "address",
          "name": "from",
          "type": "address"
        },
        {
          "indexed": true,
          "internalType": "address",
          "name": "to",
          "type": "address"
        },
        {
          "indexed": false,
          "internalType": "uint256",
          "name": "id",
          "type": "uint256"
        },
        {
          "indexed": false,
          "internalType": "uint256",
          "name": "value",
          "type": "uint256"
        }
      ],
      "name": "TransferSingle",
      "type": "event"
    },
    {
      "anonymous": false,
      "inputs": [
        {
          "indexed": false,
          "internalType": "string",
          "name": "value",
          "type": "string"
        },
        {
          "indexed": true,
          "internalType": "uint256",
          "name": "id",
          "type": "uint256"
        }
      ],
      "name": "URI",
      "type": "event"
    },
    {
      "inputs": [
        {
          "internalType": "address payable",
          "name": "owner",
          "type": "address"
        },
        {
          "internalType": "string",
          "name": "uri_",
          "type": "string"
        },
        {
          "internalType": "bool",
          "name": "forSale",
          "type": "bool"
        },
        {
          "internalType": "uint256",
          "name": "salePrice",
          "type": "uint256"
        }
      ],
      "name": "MintNFT",
      "outputs": [],
      "stateMutability": "nonpayable",
      "type": "function"
    },
    {
      "inputs": [
        {
          "internalType": "uint256",
          "name": "tokenId",
          "type": "uint256"
        },
        {
          "internalType": "uint256",
          "name": "value",
          "type": "uint256"
        }
      ],
      "name": "OfferForSale",
      "outputs": [],
      "stateMutability": "nonpayable",
      "type": "function"
    },
    {
      "inputs": [
        {
          "internalType": "string",
          "name": "encKey",
          "type": "string"
        },
        {
          "internalType": "string",
          "name": "sigKey",
          "type": "string"
        }
      ],
      "name": "RegisterUser",
      "outputs": [],
      "stateMutability": "nonpayable",
      "type": "function"
    },
    {
      "inputs": [
        {
          "internalType": "uint256",
          "name": "tokenId",
          "type": "uint256"
        }
      ],
      "name": "RemoveFromSale",
      "outputs": [],
      "stateMutability": "nonpayable",
      "type": "function"
    },
    {
      "inputs": [
        {
          "internalType": "address",
          "name": "account",
          "type": "address"
        },
        {
          "internalType": "uint256",
          "name": "id",
          "type": "uint256"
        }
      ],
      "name": "balanceOf",
      "outputs": [
        {
          "internalType": "uint256",
          "name": "",
          "type": "uint256"
        }
      ],
      "stateMutability": "view",
      "type": "function"
    },
    {
      "inputs": [
        {
          "internalType": "address[]",
          "name": "accounts",
          "type": "address[]"
        },
        {
          "internalType": "uint256[]",
          "name": "ids",
          "type": "uint256[]"
        }
      ],
      "name": "balanceOfBatch",
      "outputs": [
        {
          "internalType": "uint256[]",
          "name": "",
          "type": "uint256[]"
        }
      ],
      "stateMutability": "view",
      "type": "function"
    },
    {
      "inputs": [
        {
          "internalType": "address",
          "name": "",
          "type": "address"
        }
      ],
      "name": "escrowedEth",
      "outputs": [
        {
          "internalType": "uint256",
          "name": "",
          "type": "uint256"
        }
      ],
      "stateMutability": "view",
      "type": "function"
    },
    {
      "inputs": [
        {
          "internalType": "address",
          "name": "account",
          "type": "address"
        },
        {
          "internalType": "address",
          "name": "operator",
          "type": "address"
        }
      ],
      "name": "isApprovedForAll",
      "outputs": [
        {
          "internalType": "bool",
          "name": "",
          "type": "bool"
        }
      ],
      "stateMutability": "view",
      "type": "function"
    },
    {
      "inputs": [
        {
          "internalType": "uint256",
          "name": "tokenId",
          "type": "uint256"
        }
      ],
      "name": "removeBuyRequest",
      "outputs": [],
      "stateMutability": "nonpayable",
      "type": "function"
    },
    {
      "inputs": [
        {
          "internalType": "uint256",
          "name": "tokenId",
          "type": "uint256"
        }
      ],
      "name": "requestBuy",
      "outputs": [],
      "stateMutability": "payable",
      "type": "function"
    },
    {
      "inputs": [
        {
          "internalType": "address",
          "name": "from",
          "type": "address"
        },
        {
          "internalType": "address",
          "name": "to",
          "type": "address"
        },
        {
          "internalType": "uint256",
          "name": "id",
          "type": "uint256"
        },
        {
          "internalType": "uint256",
          "name": "amount",
          "type": "uint256"
        },
        {
          "internalType": "bytes",
          "name": "data",
          "type": "bytes"
        }
      ],
      "name": "safeTransferFrom",
      "outputs": [],
      "stateMutability": "nonpayable",
      "type": "function"
    },
    {
      "inputs": [
        {
          "internalType": "bytes4",
          "name": "interfaceId",
          "type": "bytes4"
        }
      ],
      "name": "supportsInterface",
      "outputs": [
        {
          "internalType": "bool",
          "name": "",
          "type": "bool"
        }
      ],
      "stateMutability": "view",
      "type": "function"
    },
    {
      "inputs": [
        {
          "internalType": "uint256",
          "name": "",
          "type": "uint256"
        }
      ],
      "name": "tokenData",
      "outputs": [
        {
          "internalType": "address payable",
          "name": "owner",
          "type": "address"
        },
        {
          "internalType": "string",
          "name": "uri_",
          "type": "string"
        },
        {
          "internalType": "bool",
          "name": "forSale",
          "type": "bool"
        },
        {
          "internalType": "uint256",
          "name": "salePrice",
          "type": "uint256"
        },
        {
          "internalType": "bytes16",
          "name": "policyId",
          "type": "bytes16"
        },
        {
          "components": [
            {
              "internalType": "address",
              "name": "buyer",
              "type": "address"
            }
          ],
          "internalType": "struct Masterfile.Offer",
          "name": "offer",
          "type": "tuple"
        }
      ],
      "stateMutability": "view",
      "type": "function"
    },
    {
      "inputs": [
        {
          "internalType": "contract MockPolicyManager",
          "name": "policyManager_",
          "type": "address"
        }
      ],
      "name": "updatePolicyManager",
      "outputs": [],
      "stateMutability": "nonpayable",
      "type": "function"
    },
    {
      "inputs": [
        {
          "internalType": "uint256",
          "name": "id",
          "type": "uint256"
        }
      ],
      "name": "uri",
      "outputs": [
        {
          "internalType": "string",
          "name": "",
          "type": "string"
        }
      ],
      "stateMutability": "view",
      "type": "function"
    }
  ],
  "bytecode": "0x60806040523480156200001157600080fd5b506040516200401438038062004014833981810160405281019062000037919062000380565b620000687f01ffc9a700000000000000000000000000000000000000000000000000000000620001a760201b60201c565b620000997f55280c9500000000000000000000000000000000000000000000000000000000620001a760201b60201c565b620000ca7f0e89341c00000000000000000000000000000000000000000000000000000000620001a760201b60201c565b60005b82518110156200015157600160046000858481518110620000ea57fe5b602002602001015173ffffffffffffffffffffffffffffffffffffffff1673ffffffffffffffffffffffffffffffffffffffff16815260200190815260200160002060006101000a81548160ff0219169083151502179055508080600101915050620000cd565b5080600760006101000a81548173ffffffffffffffffffffffffffffffffffffffff021916908373ffffffffffffffffffffffffffffffffffffffff160217905550640ba43b74006008819055505050620004bb565b63ffffffff60e01b817bffffffffffffffffffffffffffffffffffffffffffffffffffffffff1916141562000244576040517f08c379a000000000000000000000000000000000000000000000000000000000815260040180806020018281038252601c8152602001807f4552433136353a20696e76616c696420696e746572666163652069640000000081525060200191505060405180910390fd5b6001600080837bffffffffffffffffffffffffffffffffffffffffffffffffffffffff19167bffffffffffffffffffffffffffffffffffffffffffffffffffffffff1916815260200190815260200160002060006101000a81548160ff02191690831515021790555050565b6000620002c7620002c1846200040e565b620003da565b90508083825260208201905082856020860282011115620002e757600080fd5b60005b858110156200031b578162000300888262000325565b845260208401935060208301925050600181019050620002ea565b5050509392505050565b600081519050620003368162000487565b92915050565b600082601f8301126200034e57600080fd5b815162000360848260208601620002b0565b91505092915050565b6000815190506200037a81620004a1565b92915050565b600080604083850312156200039457600080fd5b600083015167ffffffffffffffff811115620003af57600080fd5b620003bd858286016200033c565b9250506020620003d08582860162000369565b9150509250929050565b6000604051905081810181811067ffffffffffffffff8211171562000404576200040362000485565b5b8060405250919050565b600067ffffffffffffffff8211156200042c576200042b62000485565b5b602082029050602081019050919050565b60006200044a8262000465565b9050919050565b60006200045e826200043d565b9050919050565b600073ffffffffffffffffffffffffffffffffffffffff82169050919050565bfe5b62000492816200043d565b81146200049e57600080fd5b50565b620004ac8162000451565b8114620004b857600080fd5b50565b613b4980620004cb6000396000f3fe6080604052600436106100e75760003560e01c80638c98eb511161008a578063bc2c57df11610059578063bc2c57df1461031f578063c629fe9014610348578063e985e9c514610371578063f242432a146103ae576100e7565b80638c98eb511461024e578063a131947014610277578063b4b5b48f146102a0578063ba21e9b6146102e2576100e7565b80630e89341c116100c65780630e89341c1461018f57806332677ea4146101cc57806332a22bb6146101f55780634e1273f414610211576100e7565b8062fdd58e146100ec57806301ffc9a7146101295780630428f57214610166575b600080fd5b3480156100f857600080fd5b50610113600480360381019061010e9190612c81565b6103d7565b6040516101209190613696565b60405180910390f35b34801561013557600080fd5b50610150600480360381019061014b9190612d90565b6104a1565b60405161015d9190613472565b60405180910390f35b34801561017257600080fd5b5061018d60048036038101906101889190612e4e565b610508565b005b34801561019b57600080fd5b506101b660048036038101906101b19190612e4e565b61094a565b6040516101c391906134f4565b60405180910390f35b3480156101d857600080fd5b506101f360048036038101906101ee9190612ea0565b610a02565b005b61020f600480360381019061020a9190612e4e565b610d2a565b005b34801561021d57600080fd5b5061023860048036038101906102339190612cbd565b6111cb565b6040516102459190613450565b60405180910390f35b34801561025a57600080fd5b5061027560048036038101906102709190612de2565b6112c7565b005b34801561028357600080fd5b5061029e60048036038101906102999190612b38565b6112cb565b005b3480156102ac57600080fd5b506102c760048036038101906102c29190612e4e565b6115a6565b6040516102d9969594939291906133e8565b60405180910390f35b3480156102ee57600080fd5b5061030960048036038101906103049190612b0f565b611714565b6040516103169190613696565b60405180910390f35b34801561032b57600080fd5b5061034660048036038101906103419190612e4e565b61172c565b005b34801561035457600080fd5b5061036f600480360381019061036a9190612db9565b611a37565b005b34801561037d57600080fd5b5061039860048036038101906103939190612bb3565b611ad1565b6040516103a59190613472565b60405180910390f35b3480156103ba57600080fd5b506103d560048036038101906103d09190612bef565b611b28565b005b60008073ffffffffffffffffffffffffffffffffffffffff168373ffffffffffffffffffffffffffffffffffffffff161415610448576040517f08c379a000000000000000000000000000000000000000000000000000000000815260040161043f90613676565b60405180910390fd5b6001600083815260200190815260200160002060008473ffffffffffffffffffffffffffffffffffffffff1673ffffffffffffffffffffffffffffffffffffffff16815260200190815260200160002054905092915050565b6000806000837bffffffffffffffffffffffffffffffffffffffffffffffffffffffff19167bffffffffffffffffffffffffffffffffffffffffffffffffffffffff1916815260200190815260200160002060009054906101000a900460ff169050919050565b6000600360008381526020019081526020016000206040518060c00160405290816000820160009054906101000a900473ffffffffffffffffffffffffffffffffffffffff1673ffffffffffffffffffffffffffffffffffffffff1673ffffffffffffffffffffffffffffffffffffffff168152602001600182018054600181600116156101000203166002900480601f0160208091040260200160405190810160405280929190818152602001828054600181600116156101000203166002900480156106175780601f106105ec57610100808354040283529160200191610617565b820191906000526020600020905b8154815290600101906020018083116105fa57829003601f168201915b505050505081526020016002820160009054906101000a900460ff16151515158152602001600382015481526020016004820160009054906101000a900460801b6fffffffffffffffffffffffffffffffff19166fffffffffffffffffffffffffffffffff19168152602001600582016040518060200160405290816000820160009054906101000a900473ffffffffffffffffffffffffffffffffffffffff1673ffffffffffffffffffffffffffffffffffffffff1673ffffffffffffffffffffffffffffffffffffffff16815250508152505090503373ffffffffffffffffffffffffffffffffffffffff168160a001516000015173ffffffffffffffffffffffffffffffffffffffff1614610764576040517f08c379a000000000000000000000000000000000000000000000000000000000815260040161075b90613516565b60405180910390fd5b8060600151600260003373ffffffffffffffffffffffffffffffffffffffff1673ffffffffffffffffffffffffffffffffffffffff1681526020019081526020016000205410156107ea576040517f08c379a00000000000000000000000000000000000000000000000000000000081526004016107e190613536565b60405180910390fd5b3373ffffffffffffffffffffffffffffffffffffffff166108fc82606001519081150290604051600060405180830381858888f19350505050158015610834573d6000803e3d6000fd5b508060600151600260003373ffffffffffffffffffffffffffffffffffffffff1673ffffffffffffffffffffffffffffffffffffffff168152602001908152602001600020600082825403925050819055506040518060200160405280600073ffffffffffffffffffffffffffffffffffffffff168152506003600084815260200190815260200160002060050160008201518160000160006101000a81548173ffffffffffffffffffffffffffffffffffffffff021916908373ffffffffffffffffffffffffffffffffffffffff1602179055509050507fba4f8e4371061a23f7a20e28bbba67a2d0c775da0a601396c1f5eb6dd66d1fa182600060405161093e9291906136b1565b60405180910390a15050565b6060600360008381526020019081526020016000206001018054600181600116156101000203166002900480601f0160208091040260200160405190810160405280929190818152602001828054600181600116156101000203166002900480156109f65780601f106109cb576101008083540402835291602001916109f6565b820191906000526020600020905b8154815290600101906020018083116109d957829003601f168201915b50505050509050919050565b6000600360008481526020019081526020016000206040518060c00160405290816000820160009054906101000a900473ffffffffffffffffffffffffffffffffffffffff1673ffffffffffffffffffffffffffffffffffffffff1673ffffffffffffffffffffffffffffffffffffffff168152602001600182018054600181600116156101000203166002900480601f016020809104026020016040519081016040528092919081815260200182805460018160011615610100020316600290048015610b115780601f10610ae657610100808354040283529160200191610b11565b820191906000526020600020905b815481529060010190602001808311610af457829003601f168201915b505050505081526020016002820160009054906101000a900460ff16151515158152602001600382015481526020016004820160009054906101000a900460801b6fffffffffffffffffffffffffffffffff19166fffffffffffffffffffffffffffffffff19168152602001600582016040518060200160405290816000820160009054906101000a900473ffffffffffffffffffffffffffffffffffffffff1673ffffffffffffffffffffffffffffffffffffffff1673ffffffffffffffffffffffffffffffffffffffff1681525050815250509050806000015173ffffffffffffffffffffffffffffffffffffffff163373ffffffffffffffffffffffffffffffffffffffff1614610c5a576040517f08c379a0000000000000000000000000000000000000000000000000000000008152600401610c5190613636565b60405180910390fd5b806040015115610c9f576040517f08c379a0000000000000000000000000000000000000000000000000000000008152600401610c96906135d6565b60405180910390fd5b60016003600085815260200190815260200160002060020160006101000a81548160ff0219169083151502179055508160036000858152602001908152602001600020600301819055507f8ab1cadb392cfb214799865318e0d928a332a4821b8aacd73b4c12b5b671c20483600184604051610d1d93929190613711565b60405180910390a1505050565b6000600360008381526020019081526020016000206040518060c00160405290816000820160009054906101000a900473ffffffffffffffffffffffffffffffffffffffff1673ffffffffffffffffffffffffffffffffffffffff1673ffffffffffffffffffffffffffffffffffffffff168152602001600182018054600181600116156101000203166002900480601f016020809104026020016040519081016040528092919081815260200182805460018160011615610100020316600290048015610e395780601f10610e0e57610100808354040283529160200191610e39565b820191906000526020600020905b815481529060010190602001808311610e1c57829003601f168201915b505050505081526020016002820160009054906101000a900460ff16151515158152602001600382015481526020016004820160009054906101000a900460801b6fffffffffffffffffffffffffffffffff19166fffffffffffffffffffffffffffffffff19168152602001600582016040518060200160405290816000820160009054906101000a900473ffffffffffffffffffffffffffffffffffffffff1673ffffffffffffffffffffffffffffffffffffffff1673ffffffffffffffffffffffffffffffffffffffff1681525050815250509050806000015173ffffffffffffffffffffffffffffffffffffffff163373ffffffffffffffffffffffffffffffffffffffff161415610f83576040517f08c379a0000000000000000000000000000000000000000000000000000000008152600401610f7a906135b6565b60405180910390fd5b8060400151610fc7576040517f08c379a0000000000000000000000000000000000000000000000000000000008152600401610fbe906135f6565b60405180910390fd5b600073ffffffffffffffffffffffffffffffffffffffff168160a001516000015173ffffffffffffffffffffffffffffffffffffffff161461103e576040517f08c379a000000000000000000000000000000000000000000000000000000000815260040161103590613556565b60405180910390fd5b600061106a600361105c61016d6008546124fa90919063ffffffff16565b6124fa90919063ffffffff16565b905061108381836060015161258090919063ffffffff16565b34146110c4576040517f08c379a00000000000000000000000000000000000000000000000000000000081526004016110bb90613616565b60405180910390fd5b34600260003373ffffffffffffffffffffffffffffffffffffffff1673ffffffffffffffffffffffffffffffffffffffff1681526020019081526020016000208190555060405180602001604052803373ffffffffffffffffffffffffffffffffffffffff168152506003600085815260200190815260200160002060050160008201518160000160006101000a81548173ffffffffffffffffffffffffffffffffffffffff021916908373ffffffffffffffffffffffffffffffffffffffff1602179055509050507fba4f8e4371061a23f7a20e28bbba67a2d0c775da0a601396c1f5eb6dd66d1fa183336040516111be9291906136b1565b60405180910390a1505050565b60608151835114611211576040517f08c379a000000000000000000000000000000000000000000000000000000000815260040161120890613596565b60405180910390fd5b6000835167ffffffffffffffff8111801561122b57600080fd5b5060405190808252806020026020018201604052801561125a5781602001602082028036833780820191505090505b50905060005b84518110156112bc5761129985828151811061127857fe5b602002602001015185838151811061128c57fe5b60200260200101516103d7565b8282815181106112a557fe5b602002602001018181525050806001019050611260565b508091505092915050565b5050565b600073ffffffffffffffffffffffffffffffffffffffff168473ffffffffffffffffffffffffffffffffffffffff161415611304573393505b6040518060c001604052808573ffffffffffffffffffffffffffffffffffffffff1681526020018481526020018315158152602001828152602001600060801b6fffffffffffffffffffffffffffffffff191681526020016040518060200160405280600073ffffffffffffffffffffffffffffffffffffffff1681525081525060036000600654815260200190815260200160002060008201518160000160006101000a81548173ffffffffffffffffffffffffffffffffffffffff021916908373ffffffffffffffffffffffffffffffffffffffff16021790555060208201518160010190805190602001906113fd9291906127de565b5060408201518160020160006101000a81548160ff0219169083151502179055506060820151816003015560808201518160040160006101000a8154816fffffffffffffffffffffffffffffffff021916908360801c021790555060a08201518160050160008201518160000160006101000a81548173ffffffffffffffffffffffffffffffffffffffff021916908373ffffffffffffffffffffffffffffffffffffffff16021790555050509050508373ffffffffffffffffffffffffffffffffffffffff16600073ffffffffffffffffffffffffffffffffffffffff163373ffffffffffffffffffffffffffffffffffffffff167fc3d58168c5ae7397731d063d5bbf3d657854427343f4c083240f7aacaa2d0f626006546001604051611527929190613748565b60405180910390a46001806000600654815260200190815260200160002060008673ffffffffffffffffffffffffffffffffffffffff1673ffffffffffffffffffffffffffffffffffffffff16815260200190815260200160002060008282540192505081905550600160066000828254019250508190555050505050565b60036020528060005260406000206000915090508060000160009054906101000a900473ffffffffffffffffffffffffffffffffffffffff1690806001018054600181600116156101000203166002900480601f0160208091040260200160405190810160405280929190818152602001828054600181600116156101000203166002900480156116785780601f1061164d57610100808354040283529160200191611678565b820191906000526020600020905b81548152906001019060200180831161165b57829003601f168201915b5050505050908060020160009054906101000a900460ff16908060030154908060040160009054906101000a900460801b90806005016040518060200160405290816000820160009054906101000a900473ffffffffffffffffffffffffffffffffffffffff1673ffffffffffffffffffffffffffffffffffffffff1673ffffffffffffffffffffffffffffffffffffffff1681525050905086565b60026020528060005260406000206000915090505481565b6000600360008381526020019081526020016000206040518060c00160405290816000820160009054906101000a900473ffffffffffffffffffffffffffffffffffffffff1673ffffffffffffffffffffffffffffffffffffffff1673ffffffffffffffffffffffffffffffffffffffff168152602001600182018054600181600116156101000203166002900480601f01602080910402602001604051908101604052809291908181526020018280546001816001161561010002031660029004801561183b5780601f106118105761010080835404028352916020019161183b565b820191906000526020600020905b81548152906001019060200180831161181e57829003601f168201915b505050505081526020016002820160009054906101000a900460ff16151515158152602001600382015481526020016004820160009054906101000a900460801b6fffffffffffffffffffffffffffffffff19166fffffffffffffffffffffffffffffffff19168152602001600582016040518060200160405290816000820160009054906101000a900473ffffffffffffffffffffffffffffffffffffffff1673ffffffffffffffffffffffffffffffffffffffff1673ffffffffffffffffffffffffffffffffffffffff1681525050815250509050806000015173ffffffffffffffffffffffffffffffffffffffff163373ffffffffffffffffffffffffffffffffffffffff1614611984576040517f08c379a000000000000000000000000000000000000000000000000000000000815260040161197b90613636565b60405180910390fd5b80604001516119c8576040517f08c379a00000000000000000000000000000000000000000000000000000000081526004016119bf906135f6565b60405180910390fd5b60006003600084815260200190815260200160002060020160006101000a81548160ff0219169083151502179055507f8ab1cadb392cfb214799865318e0d928a332a4821b8aacd73b4c12b5b671c20482600080604051611a2b939291906136da565b60405180910390a15050565b600460003373ffffffffffffffffffffffffffffffffffffffff1673ffffffffffffffffffffffffffffffffffffffff16815260200190815260200160002060009054906101000a900460ff16611a8d57600080fd5b80600760006101000a81548173ffffffffffffffffffffffffffffffffffffffff021916908373ffffffffffffffffffffffffffffffffffffffff16021790555050565b6000600460008373ffffffffffffffffffffffffffffffffffffffff1673ffffffffffffffffffffffffffffffffffffffff16815260200190815260200160002060009054906101000a900460ff16905092915050565b600460003373ffffffffffffffffffffffffffffffffffffffff1673ffffffffffffffffffffffffffffffffffffffff16815260200190815260200160002060009054906101000a900460ff16611b7e57600080fd5b6000600360008681526020019081526020016000206040518060c00160405290816000820160009054906101000a900473ffffffffffffffffffffffffffffffffffffffff1673ffffffffffffffffffffffffffffffffffffffff1673ffffffffffffffffffffffffffffffffffffffff168152602001600182018054600181600116156101000203166002900480601f016020809104026020016040519081016040528092919081815260200182805460018160011615610100020316600290048015611c8d5780601f10611c6257610100808354040283529160200191611c8d565b820191906000526020600020905b815481529060010190602001808311611c7057829003601f168201915b505050505081526020016002820160009054906101000a900460ff16151515158152602001600382015481526020016004820160009054906101000a900460801b6fffffffffffffffffffffffffffffffff19166fffffffffffffffffffffffffffffffff19168152602001600582016040518060200160405290816000820160009054906101000a900473ffffffffffffffffffffffffffffffffffffffff1673ffffffffffffffffffffffffffffffffffffffff1673ffffffffffffffffffffffffffffffffffffffff16815250508152505090508673ffffffffffffffffffffffffffffffffffffffff16816000015173ffffffffffffffffffffffffffffffffffffffff1614611dd6576040517f08c379a0000000000000000000000000000000000000000000000000000000008152600401611dcd90613576565b60405180910390fd5b8573ffffffffffffffffffffffffffffffffffffffff168160a001516000015173ffffffffffffffffffffffffffffffffffffffff1614611e4c576040517f08c379a0000000000000000000000000000000000000000000000000000000008152600401611e4390613656565b60405180910390fd5b6000611e786003611e6a61016d6008546124fa90919063ffffffff16565b6124fa90919063ffffffff16565b9050611e9181836060015161258090919063ffffffff16565b600260008973ffffffffffffffffffffffffffffffffffffffff1673ffffffffffffffffffffffffffffffffffffffff168152602001908152602001600020541015611f12576040517f08c379a0000000000000000000000000000000000000000000000000000000008152600401611f0990613536565b60405180910390fd5b611f506040518060400160405280601381526020017f5265766f6b696e67206f6c6420706f6c69637900000000000000000000000000815250612608565b600060801b6fffffffffffffffffffffffffffffffff191682608001516fffffffffffffffffffffffffffffffff19161461203857600760009054906101000a900473ffffffffffffffffffffffffffffffffffffffff1673ffffffffffffffffffffffffffffffffffffffff1663a2d1d5e283608001516040518263ffffffff1660e01b8152600401611fe4919061348d565b602060405180830381600087803b158015611ffe57600080fd5b505af1158015612012573d6000803e3d6000fd5b505050506040513d601f19601f820116820180604052508101906120369190612e77565b505b6000806000600367ffffffffffffffff8111801561205557600080fd5b506040519080825280602002602001820160405280156120845781602001602082028036833780820191505090505b50905086868101906120969190612d29565b80935081945082955050505060006120b7834261258090919063ffffffff16565b90506120d6826001815181106120c957fe5b6020026020010151612706565b600760009054906101000a900473ffffffffffffffffffffffffffffffffffffffff1673ffffffffffffffffffffffffffffffffffffffff166381e742a1868630635f951345876040518663ffffffff1660e01b815260040161213c94939291906134a8565b6000604051808303818588803b15801561215557600080fd5b505af1158015612169573d6000803e3d6000fd5b5050505050856000015173ffffffffffffffffffffffffffffffffffffffff166108fc87606001519081150290604051600060405180830381858888f193505050501580156121bc573d6000803e3d6000fd5b508560600151600260008d73ffffffffffffffffffffffffffffffffffffffff1673ffffffffffffffffffffffffffffffffffffffff168152602001908152602001600020819055506040518060c001604052808c73ffffffffffffffffffffffffffffffffffffffff1681526020018760200151815260200160001515815260200187606001518152602001856fffffffffffffffffffffffffffffffff191681526020016040518060200160405280600073ffffffffffffffffffffffffffffffffffffffff16815250815250600360008c815260200190815260200160002060008201518160000160006101000a81548173ffffffffffffffffffffffffffffffffffffffff021916908373ffffffffffffffffffffffffffffffffffffffff16021790555060208201518160010190805190602001906123019291906127de565b5060408201518160020160006101000a81548160ff0219169083151502179055506060820151816003015560808201518160040160006101000a8154816fffffffffffffffffffffffffffffffff021916908360801c021790555060a08201518160050160008201518160000160006101000a81548173ffffffffffffffffffffffffffffffffffffffff021916908373ffffffffffffffffffffffffffffffffffffffff16021790555050509050508a73ffffffffffffffffffffffffffffffffffffffff168c73ffffffffffffffffffffffffffffffffffffffff163373ffffffffffffffffffffffffffffffffffffffff167fc3d58168c5ae7397731d063d5bbf3d657854427343f4c083240f7aacaa2d0f628d6001604051612428929190613748565b60405180910390a460018060008c815260200190815260200160002060008e73ffffffffffffffffffffffffffffffffffffffff1673ffffffffffffffffffffffffffffffffffffffff1681526020019081526020016000206000828254039250508190555060018060008c815260200190815260200160002060008d73ffffffffffffffffffffffffffffffffffffffff1673ffffffffffffffffffffffffffffffffffffffff16815260200190815260200160002060008282540192505081905550505050505050505050505050565b60008083141561250d576000905061257a565b600082840290508284828161251e57fe5b0414612575576040517f08c379a0000000000000000000000000000000000000000000000000000000008152600401808060200182810382526021815260200180613af36021913960400191505060405180910390fd5b809150505b92915050565b6000808284019050838110156125fe576040517f08c379a000000000000000000000000000000000000000000000000000000000815260040180806020018281038252601b8152602001807f536166654d6174683a206164646974696f6e206f766572666c6f77000000000081525060200191505060405180910390fd5b8091505092915050565b612703816040516024018080602001828103825283818151815260200191508051906020019080838360005b8381101561264f578082015181840152602081019050612634565b50505050905090810190601f16801561267c5780820380516001836020036101000a031916815260200191505b50925050506040516020818303038152906040527f41304fac000000000000000000000000000000000000000000000000000000007bffffffffffffffffffffffffffffffffffffffffffffffffffffffff19166020820180517bffffffffffffffffffffffffffffffffffffffffffffffffffffffff83818316178352505050506127b5565b50565b6127b281604051602401808273ffffffffffffffffffffffffffffffffffffffff1681526020019150506040516020818303038152906040527f2c2ecbc2000000000000000000000000000000000000000000000000000000007bffffffffffffffffffffffffffffffffffffffffffffffffffffffff19166020820180517bffffffffffffffffffffffffffffffffffffffffffffffffffffffff83818316178352505050506127b5565b50565b60008151905060006a636f6e736f6c652e6c6f679050602083016000808483855afa5050505050565b828054600181600116156101000203166002900490600052602060002090601f016020900481019282612814576000855561285b565b82601f1061282d57805160ff191683800117855561285b565b8280016001018555821561285b579182015b8281111561285a57825182559160200191906001019061283f565b5b509050612868919061286c565b5090565b5b8082111561288557600081600090555060010161286d565b5090565b600061289c612897846137a2565b613771565b905080838252602082019050828560208602820111156128bb57600080fd5b60005b858110156128eb57816128d1888261299f565b8452602084019350602083019250506001810190506128be565b5050509392505050565b6000612908612903846137ce565b613771565b9050808382526020820190508285602086028201111561292757600080fd5b60005b85811015612957578161293d8882612ae5565b84526020840193506020830192505060018101905061292a565b5050509392505050565b600061297461296f846137fa565b613771565b90508281526020810184848401111561298c57600080fd5b6129978482856139fc565b509392505050565b6000813590506129ae81613a51565b92915050565b6000813590506129c381613a68565b92915050565b600082601f8301126129da57600080fd5b81356129ea848260208601612889565b91505092915050565b600082601f830112612a0457600080fd5b8135612a148482602086016128f5565b91505092915050565b600081359050612a2c81613a7f565b92915050565b600081359050612a4181613a96565b92915050565b600081359050612a5681613aad565b92915050565b60008083601f840112612a6e57600080fd5b8235905067ffffffffffffffff811115612a8757600080fd5b602083019150836001820283011115612a9f57600080fd5b9250929050565b600081359050612ab581613ac4565b92915050565b600082601f830112612acc57600080fd5b8135612adc848260208601612961565b91505092915050565b600081359050612af481613adb565b92915050565b600081519050612b0981613adb565b92915050565b600060208284031215612b2157600080fd5b6000612b2f8482850161299f565b91505092915050565b60008060008060808587031215612b4e57600080fd5b6000612b5c878288016129b4565b945050602085013567ffffffffffffffff811115612b7957600080fd5b612b8587828801612abb565b9350506040612b9687828801612a1d565b9250506060612ba787828801612ae5565b91505092959194509250565b60008060408385031215612bc657600080fd5b6000612bd48582860161299f565b9250506020612be58582860161299f565b9150509250929050565b60008060008060008060a08789031215612c0857600080fd5b6000612c1689828a0161299f565b9650506020612c2789828a0161299f565b9550506040612c3889828a01612ae5565b9450506060612c4989828a01612ae5565b935050608087013567ffffffffffffffff811115612c6657600080fd5b612c7289828a01612a5c565b92509250509295509295509295565b60008060408385031215612c9457600080fd5b6000612ca28582860161299f565b9250506020612cb385828601612ae5565b9150509250929050565b60008060408385031215612cd057600080fd5b600083013567ffffffffffffffff811115612cea57600080fd5b612cf6858286016129c9565b925050602083013567ffffffffffffffff811115612d1357600080fd5b612d1f858286016129f3565b9150509250929050565b600080600060608486031215612d3e57600080fd5b6000612d4c86828701612a32565b9350506020612d5d86828701612ae5565b925050604084013567ffffffffffffffff811115612d7a57600080fd5b612d86868287016129c9565b9150509250925092565b600060208284031215612da257600080fd5b6000612db084828501612a47565b91505092915050565b600060208284031215612dcb57600080fd5b6000612dd984828501612aa6565b91505092915050565b60008060408385031215612df557600080fd5b600083013567ffffffffffffffff811115612e0f57600080fd5b612e1b85828601612abb565b925050602083013567ffffffffffffffff811115612e3857600080fd5b612e4485828601612abb565b9150509250929050565b600060208284031215612e6057600080fd5b6000612e6e84828501612ae5565b91505092915050565b600060208284031215612e8957600080fd5b6000612e9784828501612afa565b91505092915050565b60008060408385031215612eb357600080fd5b6000612ec185828601612ae5565b9250506020612ed285828601612ae5565b9150509250929050565b6000612ee88383612f2a565b60208301905092915050565b6000612f0083836133ca565b60208301905092915050565b612f1581613990565b82525050565b612f24816138ca565b82525050565b612f33816138b8565b82525050565b612f42816138b8565b82525050565b6000612f538261384a565b612f5d8185613885565b9350612f688361382a565b8060005b83811015612f99578151612f808882612edc565b9750612f8b8361386b565b925050600181019050612f6c565b5085935050505092915050565b6000612fb182613855565b612fbb8185613896565b9350612fc68361383a565b8060005b83811015612ff7578151612fde8882612ef4565b9750612fe983613878565b925050600181019050612fca565b5085935050505092915050565b61300d816138dc565b82525050565b61301c816138e8565b82525050565b61302b816139a2565b82525050565b61303a816139b4565b82525050565b613049816139c6565b82525050565b600061305a82613860565b61306481856138a7565b9350613074818560208601613a0b565b61307d81613a40565b840191505092915050565b6000613095600e836138a7565b91507f4d53543a204e6f742042757965720000000000000000000000000000000000006000830152602082019050919050565b60006130d56018836138a7565b91507f4d53543a20496e73756666696369656e7420457363726f7700000000000000006000830152602082019050919050565b60006131156014836138a7565b91507f4d53543a20457873697374696e67204f666665720000000000000000000000006000830152602082019050919050565b60006131556013836138a7565b91507f4d53543a20496e76616c69642053656e646572000000000000000000000000006000830152602082019050919050565b60006131956025836138a7565b91507f4d53543a206163636f756e747320616e6420696473206c656e677468206d697360008301527f6d617463680000000000000000000000000000000000000000000000000000006020830152604082019050919050565b60006131fb6012836138a7565b91507f4d53543a20416c7265616479204f776e656400000000000000000000000000006000830152602082019050919050565b600061323b6015836138a7565b91507f4d53543a20416c726561647920666f722073616c6500000000000000000000006000830152602082019050919050565b600061327b6011836138a7565b91507f4d53543a204e6f7420666f722073616c650000000000000000000000000000006000830152602082019050919050565b60006132bb6017836138a7565b91507f4d53543a20496e73756666696369656e742046756e64730000000000000000006000830152602082019050919050565b60006132fb6012836138a7565b91507f4d53543a20496e76616c6964204f776e657200000000000000000000000000006000830152602082019050919050565b600061333b6012836138a7565b91507f4d53543a20496e76616c6964204f6666657200000000000000000000000000006000830152602082019050919050565b600061337b6014836138a7565b91507f4d53543a20496e76616c6964206163636f756e740000000000000000000000006000830152602082019050919050565b6020820160008201516133c46000850182612f2a565b50505050565b6133d381613972565b82525050565b6133e281613972565b82525050565b600060c0820190506133fd6000830189612f1b565b818103602083015261340f818861304f565b905061341e6040830187613004565b61342b60608301866133d9565b6134386080830185613013565b61344560a08301846133ae565b979650505050505050565b6000602082019050818103600083015261346a8184612fa6565b905092915050565b60006020820190506134876000830184613004565b92915050565b60006020820190506134a26000830184613013565b92915050565b60006080820190506134bd6000830187613013565b6134ca6020830186612f39565b6134d76040830185613031565b81810360608301526134e98184612f48565b905095945050505050565b6000602082019050818103600083015261350e818461304f565b905092915050565b6000602082019050818103600083015261352f81613088565b9050919050565b6000602082019050818103600083015261354f816130c8565b9050919050565b6000602082019050818103600083015261356f81613108565b9050919050565b6000602082019050818103600083015261358f81613148565b9050919050565b600060208201905081810360008301526135af81613188565b9050919050565b600060208201905081810360008301526135cf816131ee565b9050919050565b600060208201905081810360008301526135ef8161322e565b9050919050565b6000602082019050818103600083015261360f8161326e565b9050919050565b6000602082019050818103600083015261362f816132ae565b9050919050565b6000602082019050818103600083015261364f816132ee565b9050919050565b6000602082019050818103600083015261366f8161332e565b9050919050565b6000602082019050818103600083015261368f8161336e565b9050919050565b60006020820190506136ab60008301846133d9565b92915050565b60006040820190506136c660008301856133d9565b6136d36020830184612f0c565b9392505050565b60006060820190506136ef60008301866133d9565b6136fc6020830185613004565b6137096040830184613022565b949350505050565b600060608201905061372660008301866133d9565b6137336020830185613004565b61374060408301846133d9565b949350505050565b600060408201905061375d60008301856133d9565b61376a6020830184613040565b9392505050565b6000604051905081810181811067ffffffffffffffff8211171561379857613797613a3e565b5b8060405250919050565b600067ffffffffffffffff8211156137bd576137bc613a3e565b5b602082029050602081019050919050565b600067ffffffffffffffff8211156137e9576137e8613a3e565b5b602082029050602081019050919050565b600067ffffffffffffffff82111561381557613814613a3e565b5b601f19601f8301169050602081019050919050565b6000819050602082019050919050565b6000819050602082019050919050565b600081519050919050565b600081519050919050565b600081519050919050565b6000602082019050919050565b6000602082019050919050565b600082825260208201905092915050565b600082825260208201905092915050565b600082825260208201905092915050565b60006138c382613952565b9050919050565b60006138d582613952565b9050919050565b60008115159050919050565b60007fffffffffffffffffffffffffffffffff0000000000000000000000000000000082169050919050565b60007fffffffff0000000000000000000000000000000000000000000000000000000082169050919050565b600061394b826138b8565b9050919050565b600073ffffffffffffffffffffffffffffffffffffffff82169050919050565b6000819050919050565b600067ffffffffffffffff82169050919050565b600061399b826139d8565b9050919050565b60006139ad82613972565b9050919050565b60006139bf8261397c565b9050919050565b60006139d182613972565b9050919050565b60006139e3826139ea565b9050919050565b60006139f582613952565b9050919050565b82818337600083830152505050565b60005b83811015613a29578082015181840152602081019050613a0e565b83811115613a38576000848401525b50505050565bfe5b6000601f19601f8301169050919050565b613a5a816138b8565b8114613a6557600080fd5b50565b613a71816138ca565b8114613a7c57600080fd5b50565b613a88816138dc565b8114613a9357600080fd5b50565b613a9f816138e8565b8114613aaa57600080fd5b50565b613ab681613914565b8114613ac157600080fd5b50565b613acd81613940565b8114613ad857600080fd5b50565b613ae481613972565b8114613aef57600080fd5b5056fe536166654d6174683a206d756c7469706c69636174696f6e206f766572666c6f77a26469706673582212200b005ee1eff9d4092e4f480984b530a7e8ab245fbb7e750fdb0a18971d245fc364736f6c63430007060033",
  "linkReferences": {},
  "deployedLinkReferences": {}
}