{
  "abi": [
    {
      "inputs": [
        {
          "internalType": "bytes16",
          "name": "_policyId",
          "type": "bytes16"
        },
        {
          "internalType": "address",
          "name": "_policyOwner",
          "type": "address"
        },
        {
          "internalType": "uint64",
          "name": "_endTimestamp",
          "type": "uint64"
        },
        {
          "internalType": "address[]",
          "name": "_nodes",
          "type": "address[]"
        }
      ],
      "name": "createPolicy",
      "outputs": [],
      "stateMutability": "payable",
      "type": "function"
    },
    {
      "inputs": [],
      "name": "feeRateRange",
      "outputs": [
        {
          "internalType": "uint128",
          "name": "min",
          "type": "uint128"
        },
        {
          "internalType": "uint128",
          "name": "defaultValue",
          "type": "uint128"
        },
        {
          "internalType": "uint128",
          "name": "max",
          "type": "uint128"
        }
      ],
      "stateMutability": "view",
      "type": "function"
    },
    {
      "inputs": [
        {
          "internalType": "bytes16",
          "name": "_policyId",
          "type": "bytes16"
        }
      ],
      "name": "revokePolicy",
      "outputs": [
        {
          "internalType": "uint256",
          "name": "refundValue",
          "type": "uint256"
        }
      ],
      "stateMutability": "nonpayable",
      "type": "function"
    }
  ],
  "bytecode": "608060405234801561001057600080fd5b506101c4806100206000396000f3fe6080604052600436106100345760003560e01c806365af62c31461003957806381e742a114610079578063a2d1d5e21461011b575b600080fd5b34801561004557600080fd5b5061004e610161565b604080516001600160801b039485168152928416602084015292168183015290519081900360600190f35b6101196004803603608081101561008f57600080fd5b6001600160801b0319823516916001600160a01b036020820135169167ffffffffffffffff60408301351691908101906080810160608201356401000000008111156100da57600080fd5b8201836020820111156100ec57600080fd5b8035906020019184602083028401116401000000008311171561010e57600080fd5b509092509050610181565b005b34801561012757600080fd5b5061014f6004803603602081101561013e57600080fd5b50356001600160801b031916610188565b60408051918252519081900360200190f35b6000546001546001600160801b0380831692600160801b90048116911683565b5050505050565b5060009056fea2646970667358221220792bf66ad828e86113f57bb8419b5d976ba6e33ce3948cb2486527b82d2454a164736f6c63430007060033",
  "bytecodeSha1": "6f0d1e1e51540d295ee25328ba9358f189a58ef4",
  "compiler": {
    "evm_version": "istanbul",
    "optimizer": {
      "enabled": true,
      "runs": 200
    },
    "version": "0.7.6+commit.7338295f"
  },
  "contractName": "MockPolicyManager",
  "language": "Solidity",
  "natspec": {
    "kind": "dev",
    "methods": {},
    "version": 1
  },
  "opcodes": "PUSH1 0x80 PUSH1 0x40 MSTORE PUSH1 0x4 CALLDATASIZE LT PUSH2 0x34 JUMPI PUSH1 0x0 CALLDATALOAD PUSH1 0xE0 SHR DUP1 PUSH4 0x65AF62C3 EQ PUSH2 0x39 JUMPI DUP1 PUSH4 0x81E742A1 EQ PUSH2 0x79 JUMPI DUP1 PUSH4 0xA2D1D5E2 EQ PUSH2 0x11B JUMPI JUMPDEST PUSH1 0x0 DUP1 REVERT JUMPDEST CALLVALUE DUP1 ISZERO PUSH2 0x45 JUMPI PUSH1 0x0 DUP1 REVERT JUMPDEST POP PUSH2 0x4E PUSH2 0x161 JUMP JUMPDEST PUSH1 0x40 DUP1 MLOAD PUSH1 0x1 PUSH1 0x1 PUSH1 0x80 SHL SUB SWAP5 DUP6 AND DUP2 MSTORE SWAP3 DUP5 AND PUSH1 0x20 DUP5 ADD MSTORE SWAP3 AND DUP2 DUP4 ADD MSTORE SWAP1 MLOAD SWAP1 DUP2 SWAP1 SUB PUSH1 0x60 ADD SWAP1 RETURN JUMPDEST PUSH2 0x119 PUSH1 0x4 DUP1 CALLDATASIZE SUB PUSH1 0x80 DUP2 LT ISZERO PUSH2 0x8F JUMPI PUSH1 0x0 DUP1 REVERT JUMPDEST PUSH1 0x1 PUSH1 0x1 PUSH1 0x80 SHL SUB NOT DUP3 CALLDATALOAD AND SWAP2 PUSH1 0x1 PUSH1 0x1 PUSH1 0xA0 SHL SUB PUSH1 0x20 DUP3 ADD CALLDATALOAD AND SWAP2 PUSH8 0xFFFFFFFFFFFFFFFF PUSH1 0x40 DUP4 ADD CALLDATALOAD AND SWAP2 SWAP1 DUP2 ADD SWAP1 PUSH1 0x80 DUP2 ADD PUSH1 0x60 DUP3 ADD CALLDATALOAD PUSH5 0x100000000 DUP2 GT ISZERO PUSH2 0xDA JUMPI PUSH1 0x0 DUP1 REVERT JUMPDEST DUP3 ADD DUP4 PUSH1 0x20 DUP3 ADD GT ISZERO PUSH2 0xEC JUMPI PUSH1 0x0 DUP1 REVERT JUMPDEST DUP1 CALLDATALOAD SWAP1 PUSH1 0x20 ADD SWAP2 DUP5 PUSH1 0x20 DUP4 MUL DUP5 ADD GT PUSH5 0x100000000 DUP4 GT OR ISZERO PUSH2 0x10E JUMPI PUSH1 0x0 DUP1 REVERT JUMPDEST POP SWAP1 SWAP3 POP SWAP1 POP PUSH2 0x181 JUMP JUMPDEST STOP JUMPDEST CALLVALUE DUP1 ISZERO PUSH2 0x127 JUMPI PUSH1 0x0 DUP1 REVERT JUMPDEST POP PUSH2 0x14F PUSH1 0x4 DUP1 CALLDATASIZE SUB PUSH1 0x20 DUP2 LT ISZERO PUSH2 0x13E JUMPI PUSH1 0x0 DUP1 REVERT JUMPDEST POP CALLDATALOAD PUSH1 0x1 PUSH1 0x1 PUSH1 0x80 SHL SUB NOT AND PUSH2 0x188 JUMP JUMPDEST PUSH1 0x40 DUP1 MLOAD SWAP2 DUP3 MSTORE MLOAD SWAP1 DUP2 SWAP1 SUB PUSH1 0x20 ADD SWAP1 RETURN JUMPDEST PUSH1 0x0 SLOAD PUSH1 0x1 SLOAD PUSH1 0x1 PUSH1 0x1 PUSH1 0x80 SHL SUB DUP1 DUP4 AND SWAP3 PUSH1 0x1 PUSH1 0x80 SHL SWAP1 DIV DUP2 AND SWAP2 AND DUP4 JUMP JUMPDEST POP POP POP POP POP JUMP JUMPDEST POP PUSH1 0x0 SWAP1 JUMP INVALID LOG2 PUSH5 0x6970667358 0x22 SLT KECCAK256 PUSH26 0x2BF66AD828E86113F57BB8419B5D976BA6E33CE3948CB2486527 0xB8 0x2D 0x24 SLOAD LOG1 PUSH5 0x736F6C6343 STOP SMOD MOD STOP CALLER ",
  "sha1": "339759f060f563cef84683fae71c6f4d83a50393",
  "source": "// SPDX-License-Identifier: MIT\npragma solidity ^0.7.0;\n\n// import \"./interfaces/IMockPolicyManager.sol\";\n// import \"hardhat/console.sol\";\n\ncontract MockPolicyManager {\n    \n    struct Range {\n        uint128 min;\n        uint128 defaultValue;\n        uint128 max;\n    }\n\n    Range public feeRateRange;\n\n    function createPolicy(\n        bytes16 _policyId,\n        address _policyOwner,\n        uint64 _endTimestamp,\n        address[] calldata _nodes\n    ) external payable {\n        // console.log(\"Policy Created\");\n    }\n\n    function revokePolicy(bytes16 _policyId)\n        external\n        returns (uint256 refundValue)\n    {\n        // console.log(\"Policy Revoked\");\n\n        return 0;\n    }\n}\n",
  "sourcePath": "contracts/MockPolicyManager.sol",
  "type": "contract"
}